{
  "_format": "hh-sol-artifact-1",
  "contractName": "SushiBar",
  "sourceName": "contracts/Sushibar.sol",
  "abi": [
    {
      "inputs": [
        {
          "internalType": "contract IERC20",
          "name": "_sushi",
          "type": "address"
        }
      ],
      "stateMutability": "nonpayable",
      "type": "constructor"
    },
    {
      "anonymous": false,
      "inputs": [
        {
          "indexed": true,
          "internalType": "address",
          "name": "owner",
          "type": "address"
        },
        {
          "indexed": true,
          "internalType": "address",
          "name": "spender",
          "type": "address"
        },
        {
          "indexed": false,
          "internalType": "uint256",
          "name": "value",
          "type": "uint256"
        }
      ],
      "name": "Approval",
      "type": "event"
    },
    {
      "anonymous": false,
      "inputs": [
        {
          "indexed": true,
          "internalType": "address",
          "name": "from",
          "type": "address"
        },
        {
          "indexed": true,
          "internalType": "address",
          "name": "to",
          "type": "address"
        },
        {
          "indexed": false,
          "internalType": "uint256",
          "name": "value",
          "type": "uint256"
        }
      ],
      "name": "Transfer",
      "type": "event"
    },
    {
      "inputs": [
        {
          "internalType": "uint256",
          "name": "_timeForward",
          "type": "uint256"
        }
      ],
      "name": "SetTestSeconds",
      "outputs": [],
      "stateMutability": "nonpayable",
      "type": "function"
    },
    {
      "inputs": [
        {
          "internalType": "address",
          "name": "owner",
          "type": "address"
        },
        {
          "internalType": "address",
          "name": "spender",
          "type": "address"
        }
      ],
      "name": "allowance",
      "outputs": [
        {
          "internalType": "uint256",
          "name": "",
          "type": "uint256"
        }
      ],
      "stateMutability": "view",
      "type": "function"
    },
    {
      "inputs": [
        {
          "internalType": "address",
          "name": "spender",
          "type": "address"
        },
        {
          "internalType": "uint256",
          "name": "amount",
          "type": "uint256"
        }
      ],
      "name": "approve",
      "outputs": [
        {
          "internalType": "bool",
          "name": "",
          "type": "bool"
        }
      ],
      "stateMutability": "nonpayable",
      "type": "function"
    },
    {
      "inputs": [
        {
          "internalType": "address",
          "name": "account",
          "type": "address"
        }
      ],
      "name": "balanceOf",
      "outputs": [
        {
          "internalType": "uint256",
          "name": "",
          "type": "uint256"
        }
      ],
      "stateMutability": "view",
      "type": "function"
    },
    {
      "inputs": [],
      "name": "decimals",
      "outputs": [
        {
          "internalType": "uint8",
          "name": "",
          "type": "uint8"
        }
      ],
      "stateMutability": "view",
      "type": "function"
    },
    {
      "inputs": [
        {
          "internalType": "address",
          "name": "spender",
          "type": "address"
        },
        {
          "internalType": "uint256",
          "name": "subtractedValue",
          "type": "uint256"
        }
      ],
      "name": "decreaseAllowance",
      "outputs": [
        {
          "internalType": "bool",
          "name": "",
          "type": "bool"
        }
      ],
      "stateMutability": "nonpayable",
      "type": "function"
    },
    {
      "inputs": [
        {
          "internalType": "address",
          "name": "spender",
          "type": "address"
        },
        {
          "internalType": "uint256",
          "name": "addedValue",
          "type": "uint256"
        }
      ],
      "name": "increaseAllowance",
      "outputs": [
        {
          "internalType": "bool",
          "name": "",
          "type": "bool"
        }
      ],
      "stateMutability": "nonpayable",
      "type": "function"
    },
    {
      "inputs": [],
      "name": "name",
      "outputs": [
        {
          "internalType": "string",
          "name": "",
          "type": "string"
        }
      ],
      "stateMutability": "view",
      "type": "function"
    },
    {
      "inputs": [
        {
          "internalType": "uint256",
          "name": "_amount",
          "type": "uint256"
        }
      ],
      "name": "stake",
      "outputs": [],
      "stateMutability": "nonpayable",
      "type": "function"
    },
    {
      "inputs": [],
      "name": "sushi",
      "outputs": [
        {
          "internalType": "contract IERC20",
          "name": "",
          "type": "address"
        }
      ],
      "stateMutability": "view",
      "type": "function"
    },
    {
      "inputs": [],
      "name": "symbol",
      "outputs": [
        {
          "internalType": "string",
          "name": "",
          "type": "string"
        }
      ],
      "stateMutability": "view",
      "type": "function"
    },
    {
      "inputs": [],
      "name": "testSecs",
      "outputs": [
        {
          "internalType": "uint256",
          "name": "",
          "type": "uint256"
        }
      ],
      "stateMutability": "view",
      "type": "function"
    },
    {
      "inputs": [],
      "name": "totalSupply",
      "outputs": [
        {
          "internalType": "uint256",
          "name": "",
          "type": "uint256"
        }
      ],
      "stateMutability": "view",
      "type": "function"
    },
    {
      "inputs": [
        {
          "internalType": "address",
          "name": "to",
          "type": "address"
        },
        {
          "internalType": "uint256",
          "name": "amount",
          "type": "uint256"
        }
      ],
      "name": "transfer",
      "outputs": [
        {
          "internalType": "bool",
          "name": "",
          "type": "bool"
        }
      ],
      "stateMutability": "nonpayable",
      "type": "function"
    },
    {
      "inputs": [
        {
          "internalType": "address",
          "name": "from",
          "type": "address"
        },
        {
          "internalType": "address",
          "name": "to",
          "type": "address"
        },
        {
          "internalType": "uint256",
          "name": "amount",
          "type": "uint256"
        }
      ],
      "name": "transferFrom",
      "outputs": [
        {
          "internalType": "bool",
          "name": "",
          "type": "bool"
        }
      ],
      "stateMutability": "nonpayable",
      "type": "function"
    },
    {
      "inputs": [],
      "name": "unstake",
      "outputs": [],
      "stateMutability": "nonpayable",
      "type": "function"
    },
    {
      "inputs": [
        {
          "internalType": "address",
          "name": "",
          "type": "address"
        }
      ],
      "name": "users",
      "outputs": [
        {
          "internalType": "uint256",
          "name": "stakedAmt",
          "type": "uint256"
        },
        {
          "internalType": "uint256",
          "name": "stakedTime",
          "type": "uint256"
        },
        {
          "internalType": "bool",
          "name": "isStaked",
          "type": "bool"
        }
      ],
      "stateMutability": "view",
      "type": "function"
    }
  ],
  "bytecode": "0x608060405260006008553480156200001657600080fd5b50604051620029283803806200292883398181016040528101906200003c9190620001d5565b6040518060400160405280600881526020017f53757368694261720000000000000000000000000000000000000000000000008152506040518060400160405280600681526020017f78535553484900000000000000000000000000000000000000000000000000008152508160039081620000b9919062000481565b508060049081620000cb919062000481565b50505080600560006101000a81548173ffffffffffffffffffffffffffffffffffffffff021916908373ffffffffffffffffffffffffffffffffffffffff16021790555033600660006101000a81548173ffffffffffffffffffffffffffffffffffffffff021916908373ffffffffffffffffffffffffffffffffffffffff1602179055505062000568565b600080fd5b600073ffffffffffffffffffffffffffffffffffffffff82169050919050565b600062000189826200015c565b9050919050565b60006200019d826200017c565b9050919050565b620001af8162000190565b8114620001bb57600080fd5b50565b600081519050620001cf81620001a4565b92915050565b600060208284031215620001ee57620001ed62000157565b5b6000620001fe84828501620001be565b91505092915050565b600081519050919050565b7f4e487b7100000000000000000000000000000000000000000000000000000000600052604160045260246000fd5b7f4e487b7100000000000000000000000000000000000000000000000000000000600052602260045260246000fd5b600060028204905060018216806200028957607f821691505b6020821081036200029f576200029e62000241565b5b50919050565b60008190508160005260206000209050919050565b60006020601f8301049050919050565b600082821b905092915050565b600060088302620003097fffffffffffffffffffffffffffffffffffffffffffffffffffffffffffffffff82620002ca565b620003158683620002ca565b95508019841693508086168417925050509392505050565b6000819050919050565b6000819050919050565b6000620003626200035c62000356846200032d565b62000337565b6200032d565b9050919050565b6000819050919050565b6200037e8362000341565b620003966200038d8262000369565b848454620002d7565b825550505050565b600090565b620003ad6200039e565b620003ba81848462000373565b505050565b5b81811015620003e257620003d6600082620003a3565b600181019050620003c0565b5050565b601f8211156200043157620003fb81620002a5565b6200040684620002ba565b8101602085101562000416578190505b6200042e6200042585620002ba565b830182620003bf565b50505b505050565b600082821c905092915050565b6000620004566000198460080262000436565b1980831691505092915050565b600062000471838362000443565b9150826002028217905092915050565b6200048c8262000207565b67ffffffffffffffff811115620004a857620004a762000212565b5b620004b4825462000270565b620004c1828285620003e6565b600060209050601f831160018114620004f95760008415620004e4578287015190505b620004f0858262000463565b86555062000560565b601f1984166200050986620002a5565b60005b8281101562000533578489015182556001820191506020850194506020810190506200050c565b868310156200055357848901516200054f601f89168262000443565b8355505b6001600288020188555050505b505050505050565b6123b080620005786000396000f3fe608060405234801561001057600080fd5b506004361061010b5760003560e01c80636249c0b3116100a2578063a694fc3a11610071578063a694fc3a146102be578063a87430ba146102da578063a9059cbb1461030c578063c6ec118d1461033c578063dd62ed3e146103585761010b565b80636249c0b31461022257806370a082311461024057806395d89b4114610270578063a457c2d71461028e5761010b565b806323b872dd116100de57806323b872dd1461019a5780632def6620146101ca578063313ce567146101d457806339509351146101f25761010b565b806306fdde0314610110578063095ea7b31461012e5780630a0879031461015e57806318160ddd1461017c575b600080fd5b610118610388565b604051610125919061166a565b60405180910390f35b61014860048036038101906101439190611725565b61041a565b6040516101559190611780565b60405180910390f35b61016661043d565b60405161017391906117fa565b60405180910390f35b610184610463565b6040516101919190611824565b60405180910390f35b6101b460048036038101906101af919061183f565b61046d565b6040516101c19190611780565b60405180910390f35b6101d261049c565b005b6101dc61075b565b6040516101e991906118ae565b60405180910390f35b61020c60048036038101906102079190611725565b610764565b6040516102199190611780565b60405180910390f35b61022a61079b565b6040516102379190611824565b60405180910390f35b61025a600480360381019061025591906118c9565b6107a1565b6040516102679190611824565b60405180910390f35b6102786107e9565b604051610285919061166a565b60405180910390f35b6102a860048036038101906102a39190611725565b61087b565b6040516102b59190611780565b60405180910390f35b6102d860048036038101906102d391906118f6565b6108f2565b005b6102f460048036038101906102ef91906118c9565b610c44565b60405161030393929190611923565b60405180910390f35b61032660048036038101906103219190611725565b610c7b565b6040516103339190611780565b60405180910390f35b610356600480360381019061035191906118f6565b610c9e565b005b610372600480360381019061036d919061195a565b610d38565b60405161037f9190611824565b60405180910390f35b606060038054610397906119c9565b80601f01602080910402602001604051908101604052809291908181526020018280546103c3906119c9565b80156104105780601f106103e557610100808354040283529160200191610410565b820191906000526020600020905b8154815290600101906020018083116103f357829003601f168201915b5050505050905090565b600080610425610dbf565b9050610432818585610dc7565b600191505092915050565b600560009054906101000a900473ffffffffffffffffffffffffffffffffffffffff1681565b6000600254905090565b600080610478610dbf565b9050610485858285610f90565b61049085858561101c565b60019150509392505050565b6000600760003373ffffffffffffffffffffffffffffffffffffffff1673ffffffffffffffffffffffffffffffffffffffff168152602001908152602001600020905060008160000154905060006104f2610463565b9050600081600560009054906101000a900473ffffffffffffffffffffffffffffffffffffffff1673ffffffffffffffffffffffffffffffffffffffff166370a08231306040518263ffffffff1660e01b81526004016105529190611a09565b602060405180830381865afa15801561056f573d6000803e3d6000fd5b505050506040513d601f19601f820116820180604052508101906105939190611a39565b8461059e9190611a95565b6105a89190611b06565b905060006008548560010154426105bf9190611b37565b6105c99190611b6b565b90506201518060086105db9190611baf565b63ffffffff1681101561068c576201518060066105f89190611baf565b63ffffffff1681106106245760046003836106139190611a95565b61061d9190611b06565b915061068b565b6201518060046106349190611baf565b63ffffffff1681106106545760028261064d9190611b06565b915061068a565b6201518060026106649190611baf565b63ffffffff1681106106845760048261067d9190611b06565b9150610689565b600080fd5b5b5b5b60008560020160006101000a81548160ff0219169083151502179055506106b3338561129b565b600560009054906101000a900473ffffffffffffffffffffffffffffffffffffffff1673ffffffffffffffffffffffffffffffffffffffff1663a9059cbb33846040518363ffffffff1660e01b8152600401610710929190611bec565b6020604051808303816000875af115801561072f573d6000803e3d6000fd5b505050506040513d601f19601f820116820180604052508101906107539190611c41565b505050505050565b60006012905090565b60008061076f610dbf565b90506107908185856107818589610d38565b61078b9190611b6b565b610dc7565b600191505092915050565b60085481565b60008060008373ffffffffffffffffffffffffffffffffffffffff1673ffffffffffffffffffffffffffffffffffffffff168152602001908152602001600020549050919050565b6060600480546107f8906119c9565b80601f0160208091040260200160405190810160405280929190818152602001828054610824906119c9565b80156108715780601f1061084657610100808354040283529160200191610871565b820191906000526020600020905b81548152906001019060200180831161085457829003601f168201915b5050505050905090565b600080610886610dbf565b905060006108948286610d38565b9050838110156108d9576040517f08c379a00000000000000000000000000000000000000000000000000000000081526004016108d090611ce0565b60405180910390fd5b6108e68286868403610dc7565b60019250505092915050565b6000600760003373ffffffffffffffffffffffffffffffffffffffff1673ffffffffffffffffffffffffffffffffffffffff1681526020019081526020016000209050600015158160020160009054906101000a900460ff1615151461098d576040517f08c379a000000000000000000000000000000000000000000000000000000000815260040161098490611d4c565b60405180910390fd5b81600560009054906101000a900473ffffffffffffffffffffffffffffffffffffffff1673ffffffffffffffffffffffffffffffffffffffff1663dd62ed3e33306040518363ffffffff1660e01b81526004016109eb929190611d6c565b602060405180830381865afa158015610a08573d6000803e3d6000fd5b505050506040513d601f19601f82011682018060405250810190610a2c9190611a39565b1015610a6d576040517f08c379a0000000000000000000000000000000000000000000000000000000008152600401610a6490611de1565b60405180910390fd5b6000600560009054906101000a900473ffffffffffffffffffffffffffffffffffffffff1673ffffffffffffffffffffffffffffffffffffffff166370a08231306040518263ffffffff1660e01b8152600401610aca9190611a09565b602060405180830381865afa158015610ae7573d6000803e3d6000fd5b505050506040513d601f19601f82011682018060405250810190610b0b9190611a39565b90506000610b17610463565b90506000811480610b285750600082145b15610b4557610b373385611471565b838360000181905550610b75565b6000828286610b549190611a95565b610b5e9190611b06565b9050610b6a3382611471565b808460000181905550505b42836001018190555060018360020160006101000a81548160ff021916908315150217905550600560009054906101000a900473ffffffffffffffffffffffffffffffffffffffff1673ffffffffffffffffffffffffffffffffffffffff166323b872dd3330876040518463ffffffff1660e01b8152600401610bfa93929190611e01565b6020604051808303816000875af1158015610c19573d6000803e3d6000fd5b505050506040513d601f19601f82011682018060405250810190610c3d9190611c41565b5050505050565b60076020528060005260406000206000915090508060000154908060010154908060020160009054906101000a900460ff16905083565b600080610c86610dbf565b9050610c9381858561101c565b600191505092915050565b600660009054906101000a900473ffffffffffffffffffffffffffffffffffffffff1673ffffffffffffffffffffffffffffffffffffffff163373ffffffffffffffffffffffffffffffffffffffff1614610d2e576040517f08c379a0000000000000000000000000000000000000000000000000000000008152600401610d2590611e84565b60405180910390fd5b8060088190555050565b6000600160008473ffffffffffffffffffffffffffffffffffffffff1673ffffffffffffffffffffffffffffffffffffffff16815260200190815260200160002060008373ffffffffffffffffffffffffffffffffffffffff1673ffffffffffffffffffffffffffffffffffffffff16815260200190815260200160002054905092915050565b600033905090565b600073ffffffffffffffffffffffffffffffffffffffff168373ffffffffffffffffffffffffffffffffffffffff1603610e36576040517f08c379a0000000000000000000000000000000000000000000000000000000008152600401610e2d90611f16565b60405180910390fd5b600073ffffffffffffffffffffffffffffffffffffffff168273ffffffffffffffffffffffffffffffffffffffff1603610ea5576040517f08c379a0000000000000000000000000000000000000000000000000000000008152600401610e9c90611fa8565b60405180910390fd5b80600160008573ffffffffffffffffffffffffffffffffffffffff1673ffffffffffffffffffffffffffffffffffffffff16815260200190815260200160002060008473ffffffffffffffffffffffffffffffffffffffff1673ffffffffffffffffffffffffffffffffffffffff168152602001908152602001600020819055508173ffffffffffffffffffffffffffffffffffffffff168373ffffffffffffffffffffffffffffffffffffffff167f8c5be1e5ebec7d5bd14f71427d1e84f3dd0314c0f7b2291e5b200ac8c7c3b92583604051610f839190611824565b60405180910390a3505050565b6000610f9c8484610d38565b90507fffffffffffffffffffffffffffffffffffffffffffffffffffffffffffffffff81146110165781811015611008576040517f08c379a0000000000000000000000000000000000000000000000000000000008152600401610fff90612014565b60405180910390fd5b6110158484848403610dc7565b5b50505050565b600073ffffffffffffffffffffffffffffffffffffffff168373ffffffffffffffffffffffffffffffffffffffff160361108b576040517f08c379a0000000000000000000000000000000000000000000000000000000008152600401611082906120a6565b60405180910390fd5b600073ffffffffffffffffffffffffffffffffffffffff168273ffffffffffffffffffffffffffffffffffffffff16036110fa576040517f08c379a00000000000000000000000000000000000000000000000000000000081526004016110f190612138565b60405180910390fd5b6111058383836115d0565b60008060008573ffffffffffffffffffffffffffffffffffffffff1673ffffffffffffffffffffffffffffffffffffffff1681526020019081526020016000205490508181101561118b576040517f08c379a0000000000000000000000000000000000000000000000000000000008152600401611182906121ca565b60405180910390fd5b8181036000808673ffffffffffffffffffffffffffffffffffffffff1673ffffffffffffffffffffffffffffffffffffffff16815260200190815260200160002081905550816000808573ffffffffffffffffffffffffffffffffffffffff1673ffffffffffffffffffffffffffffffffffffffff168152602001908152602001600020600082825461121e9190611b6b565b925050819055508273ffffffffffffffffffffffffffffffffffffffff168473ffffffffffffffffffffffffffffffffffffffff167fddf252ad1be2c89b69c2b068fc378daa952ba7f163c4a11628f55a4df523b3ef846040516112829190611824565b60405180910390a36112958484846115d5565b50505050565b600073ffffffffffffffffffffffffffffffffffffffff168273ffffffffffffffffffffffffffffffffffffffff160361130a576040517f08c379a00000000000000000000000000000000000000000000000000000000081526004016113019061225c565b60405180910390fd5b611316826000836115d0565b60008060008473ffffffffffffffffffffffffffffffffffffffff1673ffffffffffffffffffffffffffffffffffffffff1681526020019081526020016000205490508181101561139c576040517f08c379a0000000000000000000000000000000000000000000000000000000008152600401611393906122ee565b60405180910390fd5b8181036000808573ffffffffffffffffffffffffffffffffffffffff1673ffffffffffffffffffffffffffffffffffffffff1681526020019081526020016000208190555081600260008282546113f39190611b37565b92505081905550600073ffffffffffffffffffffffffffffffffffffffff168373ffffffffffffffffffffffffffffffffffffffff167fddf252ad1be2c89b69c2b068fc378daa952ba7f163c4a11628f55a4df523b3ef846040516114589190611824565b60405180910390a361146c836000846115d5565b505050565b600073ffffffffffffffffffffffffffffffffffffffff168273ffffffffffffffffffffffffffffffffffffffff16036114e0576040517f08c379a00000000000000000000000000000000000000000000000000000000081526004016114d79061235a565b60405180910390fd5b6114ec600083836115d0565b80600260008282546114fe9190611b6b565b92505081905550806000808473ffffffffffffffffffffffffffffffffffffffff1673ffffffffffffffffffffffffffffffffffffffff16815260200190815260200160002060008282546115539190611b6b565b925050819055508173ffffffffffffffffffffffffffffffffffffffff16600073ffffffffffffffffffffffffffffffffffffffff167fddf252ad1be2c89b69c2b068fc378daa952ba7f163c4a11628f55a4df523b3ef836040516115b89190611824565b60405180910390a36115cc600083836115d5565b5050565b505050565b505050565b600081519050919050565b600082825260208201905092915050565b60005b838110156116145780820151818401526020810190506115f9565b60008484015250505050565b6000601f19601f8301169050919050565b600061163c826115da565b61164681856115e5565b93506116568185602086016115f6565b61165f81611620565b840191505092915050565b600060208201905081810360008301526116848184611631565b905092915050565b600080fd5b600073ffffffffffffffffffffffffffffffffffffffff82169050919050565b60006116bc82611691565b9050919050565b6116cc816116b1565b81146116d757600080fd5b50565b6000813590506116e9816116c3565b92915050565b6000819050919050565b611702816116ef565b811461170d57600080fd5b50565b60008135905061171f816116f9565b92915050565b6000806040838503121561173c5761173b61168c565b5b600061174a858286016116da565b925050602061175b85828601611710565b9150509250929050565b60008115159050919050565b61177a81611765565b82525050565b60006020820190506117956000830184611771565b92915050565b6000819050919050565b60006117c06117bb6117b684611691565b61179b565b611691565b9050919050565b60006117d2826117a5565b9050919050565b60006117e4826117c7565b9050919050565b6117f4816117d9565b82525050565b600060208201905061180f60008301846117eb565b92915050565b61181e816116ef565b82525050565b60006020820190506118396000830184611815565b92915050565b6000806000606084860312156118585761185761168c565b5b6000611866868287016116da565b9350506020611877868287016116da565b925050604061188886828701611710565b9150509250925092565b600060ff82169050919050565b6118a881611892565b82525050565b60006020820190506118c3600083018461189f565b92915050565b6000602082840312156118df576118de61168c565b5b60006118ed848285016116da565b91505092915050565b60006020828403121561190c5761190b61168c565b5b600061191a84828501611710565b91505092915050565b60006060820190506119386000830186611815565b6119456020830185611815565b6119526040830184611771565b949350505050565b600080604083850312156119715761197061168c565b5b600061197f858286016116da565b9250506020611990858286016116da565b9150509250929050565b7f4e487b7100000000000000000000000000000000000000000000000000000000600052602260045260246000fd5b600060028204905060018216806119e157607f821691505b6020821081036119f4576119f361199a565b5b50919050565b611a03816116b1565b82525050565b6000602082019050611a1e60008301846119fa565b92915050565b600081519050611a33816116f9565b92915050565b600060208284031215611a4f57611a4e61168c565b5b6000611a5d84828501611a24565b91505092915050565b7f4e487b7100000000000000000000000000000000000000000000000000000000600052601160045260246000fd5b6000611aa0826116ef565b9150611aab836116ef565b9250828202611ab9816116ef565b91508282048414831517611ad057611acf611a66565b5b5092915050565b7f4e487b7100000000000000000000000000000000000000000000000000000000600052601260045260246000fd5b6000611b11826116ef565b9150611b1c836116ef565b925082611b2c57611b2b611ad7565b5b828204905092915050565b6000611b42826116ef565b9150611b4d836116ef565b9250828203905081811115611b6557611b64611a66565b5b92915050565b6000611b76826116ef565b9150611b81836116ef565b9250828201905080821115611b9957611b98611a66565b5b92915050565b600063ffffffff82169050919050565b6000611bba82611b9f565b9150611bc583611b9f565b9250828202611bd381611b9f565b9150808214611be557611be4611a66565b5b5092915050565b6000604082019050611c0160008301856119fa565b611c0e6020830184611815565b9392505050565b611c1e81611765565b8114611c2957600080fd5b50565b600081519050611c3b81611c15565b92915050565b600060208284031215611c5757611c5661168c565b5b6000611c6584828501611c2c565b91505092915050565b7f45524332303a2064656372656173656420616c6c6f77616e63652062656c6f7760008201527f207a65726f000000000000000000000000000000000000000000000000000000602082015250565b6000611cca6025836115e5565b9150611cd582611c6e565b604082019050919050565b60006020820190508181036000830152611cf981611cbd565b9050919050565b7f6f6e65207374616b6520617420612074696d6500000000000000000000000000600082015250565b6000611d366013836115e5565b9150611d4182611d00565b602082019050919050565b60006020820190508181036000830152611d6581611d29565b9050919050565b6000604082019050611d8160008301856119fa565b611d8e60208301846119fa565b9392505050565b7f416c6c6f776564206c696d697420657863656564656400000000000000000000600082015250565b6000611dcb6016836115e5565b9150611dd682611d95565b602082019050919050565b60006020820190508181036000830152611dfa81611dbe565b9050919050565b6000606082019050611e1660008301866119fa565b611e2360208301856119fa565b611e306040830184611815565b949350505050565b7f6e6f7420616c6c6f776564000000000000000000000000000000000000000000600082015250565b6000611e6e600b836115e5565b9150611e7982611e38565b602082019050919050565b60006020820190508181036000830152611e9d81611e61565b9050919050565b7f45524332303a20617070726f76652066726f6d20746865207a65726f2061646460008201527f7265737300000000000000000000000000000000000000000000000000000000602082015250565b6000611f006024836115e5565b9150611f0b82611ea4565b604082019050919050565b60006020820190508181036000830152611f2f81611ef3565b9050919050565b7f45524332303a20617070726f766520746f20746865207a65726f20616464726560008201527f7373000000000000000000000000000000000000000000000000000000000000602082015250565b6000611f926022836115e5565b9150611f9d82611f36565b604082019050919050565b60006020820190508181036000830152611fc181611f85565b9050919050565b7f45524332303a20696e73756666696369656e7420616c6c6f77616e6365000000600082015250565b6000611ffe601d836115e5565b915061200982611fc8565b602082019050919050565b6000602082019050818103600083015261202d81611ff1565b9050919050565b7f45524332303a207472616e736665722066726f6d20746865207a65726f20616460008201527f6472657373000000000000000000000000000000000000000000000000000000602082015250565b60006120906025836115e5565b915061209b82612034565b604082019050919050565b600060208201905081810360008301526120bf81612083565b9050919050565b7f45524332303a207472616e7366657220746f20746865207a65726f206164647260008201527f6573730000000000000000000000000000000000000000000000000000000000602082015250565b60006121226023836115e5565b915061212d826120c6565b604082019050919050565b6000602082019050818103600083015261215181612115565b9050919050565b7f45524332303a207472616e7366657220616d6f756e742065786365656473206260008201527f616c616e63650000000000000000000000000000000000000000000000000000602082015250565b60006121b46026836115e5565b91506121bf82612158565b604082019050919050565b600060208201905081810360008301526121e3816121a7565b9050919050565b7f45524332303a206275726e2066726f6d20746865207a65726f2061646472657360008201527f7300000000000000000000000000000000000000000000000000000000000000602082015250565b60006122466021836115e5565b9150612251826121ea565b604082019050919050565b6000602082019050818103600083015261227581612239565b9050919050565b7f45524332303a206275726e20616d6f756e7420657863656564732062616c616e60008201527f6365000000000000000000000000000000000000000000000000000000000000602082015250565b60006122d86022836115e5565b91506122e38261227c565b604082019050919050565b60006020820190508181036000830152612307816122cb565b9050919050565b7f45524332303a206d696e7420746f20746865207a65726f206164647265737300600082015250565b6000612344601f836115e5565b915061234f8261230e565b602082019050919050565b6000602082019050818103600083015261237381612337565b905091905056fea264697066735822122021282330ce95279887017690e029aaada3e973fbf8d4fbbb5da61d38ab36d15964736f6c63430008110033",
  "linkReferences": {},
  "deployedLinkReferences": {}
}